:020000040800F2
:1000000068040020490100081B100008150D0008B5
:1000100019100008B5010008771000080000000062
:100020000000000000000000000000001F10000899
:10003000B7010008000000001D1000082110000892
:100040006301000863010008630100086301000800
:1000500063010008630100086301000863010008F0
:1000600063010008630100086301000863010008E0
:1000700063010008630100086301000863010008D0
:1000800063010008630100086301000863010008C0
:1000900063010008630100086301000863010008B0
:1000A00063010008630100086301000863010008A0
:1000B0006301000863010008630100086301000890
:1000C0006301000863010008630100086301000880
:1000D0006301000863010008630100086301000870
:1000E0006301000863010008630100086301000860
:1000F0006301000863010008630100086301000850
:10010000630100086301000863010008630100083F
:10011000630100086301000863010008630100082F
:10012000630100086301000863010008630100081F
:10013000DFF810D000F02CF8004800470D1200083E
:10014000AFF3008068040020064880470648004757
:10015000FEE7FEE7FEE7FEE7FEE7FEE7FEE7FEE777
:10016000FEE7FEE77510000831010008D2B201E099
:1001700000F8012B491EFBD270470022F6E710B5AC
:1001800013460A4604461946FFF7F0FF204610BD05
:10019000064C074D06E0E06840F0010394E80700D4
:1001A00098471034AC42F6D3FFF7C6FF741200082C
:1001B00094120008FEE7704772B6FEE770B5044679
:1001C00000F010F90546601C02D004480078044491
:1001D00000F008F9401BA042FAD370BD00000020D7
:1001E0002DE9F84FDFF8C891002409F1040A0AF15B
:1001F000040B23460F270BF1040ED1E00125A54087
:1002000006EA0502AA4276D1DFF8A8C14E68A6EB3D
:100210000C0866452BD00DDC032E34D005DC36B33C
:10022000012E19D0022E2FD11BE0112E16D0122E26
:100230002AD119E0B8F5881F19D006DCB8F5803F3F
:1002400015D0B8F5801F1FD111E0B8F5001F0ED0F2
:10025000B8F5041F18D10AE0CB6815E0CB681B1D68
:1002600012E0CB6808330FE0CB680C330CE08B68EE
:100270002BB1012B4FF0080303D0456104E00423A8
:1002800002E0056100E00023FF2A01D8064601E0F4
:1002900000F104064FEA840501D9A5F12005D6F83E
:1002A000008007FA05FC28EA0C0803FA05F548EA7D
:1002B0000508C6F800804D68ED0070D53E4DAE696A
:1002C00046F00106AE61AD6924F0030605F00105B4
:1002D00000953A4D06EB050CDCF80850A607360FE2
:1002E00007FA06F825EA0805DFF8D480404503D16F
:1002F0004FF0000825E052E0DFF8C880404502D109
:100300004FF001081DE0DFF8C080404502D14FF0FA
:10031000020816E0DFF8B480404502D14FF0030830
:100320000FE0DFF8AC80404502D14FF0040808E050
:10033000DFF8A080404502D14FF0050801E04FF002
:10034000060808FA06F848EA0508CCF808804D685F
:10035000D9F80060ED034D4601D5164300E0964301
:100360002E604D68DAF80060AD03554601D516439E
:1003700000E096432E604D68DBF80060ED025D46BC
:1003800001D5164300E096432E604D68DEF800600C
:10039000AD02754601D5164300E096432E60641CFD
:1003A0000A681646E2407FF429AFBDE8F88F0000E6
:1003B0000004014000001110001002400000014044
:1003C00000080140000C01400010014000140140F1
:1003D00000180140001C01400AB101617047090486
:1003E000FBE7000001488068704700000000002023
:1003F00070B5040025D094F83D00002520B984F89C
:100400003C50204600F04EF9242084F83D0020683E
:10041000016821F0010101602068016841F4004198
:1004200001602068016821F40041016000F088FA51
:100430004D4A6168914201D84C4900E04C498842DC
:1004400001D2012070BD4B492368B0FBF1F15E6819
:1004500026F03F060E435E606368934206D94FF470
:10046000967359434FF47A73B1FBF3F12368491C37
:100470001E6A26F03F06314319626168914210D826
:100480004900401EB0FBF1F2521CC2F30B02042AD9
:1004900001D2042022E0B0FBF1F0401CC0F30B00BD
:1004A0001CE0A268F2B301EBC10303EB0116431E8B
:1004B000B3FBF6F35B1C43F480431B0549D092B3B6
:1004C00001EBC10202EB0111401EB0FBF1F0401C38
:1004D000C0F30B0040F4804040F400402168CA693A
:1004E0004CF6FF739A431043C861D4E907100143E7
:1004F0002068026822F0C00211430160D4E90301C0
:1005000001432068826848F2FF339A4311438160B7
:10051000D4E9050108432168CA6822F0FF021043AC
:10052000C86001E00EE016E02068016841F00101BA
:1005300001602564202084F83D00256384F83E5046
:10054000002070BD01EB4106431EB3FBF6F35B1CBC
:10055000B3E70120C2E701EB4101401EB0FBF1F01F
:10056000401CC0F30B00B7E7A086010080841E008A
:1005700000093D0040420F002DE9F84F1F4690460C
:100580008A460446DDF82890FFF72CFF054694F8CC
:100590003D0020287FD119230122404920460095A3
:1005A00000F044FC002876D194F83C00012872D079
:1005B000012084F83C0020680168C90703D1016864
:1005C00041F0010101602068016821F400610160CF
:1005D000212084F83D00102084F83E000026266487
:1005E000C4F824806785608D20852D48E0622B4605
:1005F0004A465146204600F0A5FB90B92068416963
:100600008069009036E02A464946204600F08DFC7D
:1006100050B1206C042804D12068016841F40071B5
:1006200001600120BDE8F88F606A216800780861E8
:10063000606A401C6062618D491E6185218D491E82
:1006400089B2218522685369DB435B070BD451B122
:1006500000781061606A401C6062608D401E608599
:10066000208D401E20852A464946204600F0B8FBD2
:100670000028CED1208D0028C5D154F83D0B01684B
:1006800041F400710160202004F81E09E6776677C6
:100690000020C7E7FFE70220C4E7000002001000C7
:1006A0000000FFFF10B586B000210091019102917A
:1006B000039100680F4988421AD10F4CA06940F09D
:1006C0000800A061A069694600F008000490C020FD
:1006D000009012200190032003900848FFF780FD4E
:1006E000E06940F40010E061E06900F4001004905B
:1006F00006B010BD0054004000100240000C014044
:10070000024881680278114481607047000000202F
:10071000074810B5016841F010010160032000F0A6
:1007200067F8002000F006F800F024F8002010BD63
:100730000020024070B50D4D04464FF47A712878C0
:10074000B1FBF0F00A490968B1FBF0F000F0CEFA15
:1007500048B9102C07D200222146501E00F028F87C
:1007600000206C6070BD012070BD00000000002002
:100770000C0000200C4808B5816941F0010181613D
:10078000816901F001010091C16941F08051C161AD
:10079000C06900F0805000900448416821F0E06199
:1007A00041F08061416008BD00100240000001403E
:1007B000F0B40E4B1B680C46C3F30223C3F10705CC
:1007C000042D00D90425191D072901D2002300E0BA
:1007D000DB1E012606FA05F1491E214099409E4084
:1007E000761E16403143F0BC00F046BC0CED00E034
:1007F000064900F0070208684FF6FF03184040EA78
:100800000220034A10430860704700000CED00E02E
:100810000000FA052DE9F0470F46050061D0434E70
:10082000306800F00700B84209D2306820F00700B5
:1008300038433060306800F00700B84251D1286872
:100840003B4C810712D5400703D5606840F4E06057
:1008500060602878000703D5606840F460506060ED
:100860006068A96820F0F000084360602878C0073D
:1008700028D06868012810D02168022810D0890784
:1008800000292EDA616821F0030101436160FFF75E
:10089000A9FD804641F288390DE021688903EFE720
:1008A0008901EDE7FFF79EFDA0EB0801494502D95C
:1008B0000320BDE8F0876068696800F00C00B0EBC9
:1008C000810FEFD1306800F00700B8420BD93068D3
:1008D00020F0070038433060306800F00700B8426D
:1008E00001D00120E5E72878400705D56068E96870
:1008F00020F4E060084360602878000706D560684F
:10090000296920F4605040EAC100606000F028F8D6
:100910006168084AC1F30311515CC8400649086088
:1009200006480068FFF706FF0020C2E700200240EB
:10093000001002405C1200080C000020040000209F
:100940000448054900684968044AC1F30221515C22
:10095000C84070470C000020001002406C120008D4
:1009600012A185B00FC98DE80F0014A0144A0068C9
:1009700004905168134801F00C03042B10D0082B8D
:100980000ED1C1F38343C9031DF803000AD5516892
:1009900004AAC1F34041515C0A4A5043B0FBF1F054
:1009A00005B0704708494843FAE700000203040510
:1009B000060708090A0B0C0D0E0F101001020000AB
:1009C0000010024000127A0000093D002DE9F84FA6
:1009D000040070D02078C04DC00749D06868C0F3CB
:1009E0008100012807D06868C0F38100022809D17E
:1009F0006868C00306D52868800339D56068002878
:100A0000E7D035E06068B0F5803F0BD010B1B0F5AD
:100A1000A02F11D0286820F480302860286820F4A6
:100A2000802002E0286840F480302860606890B13F
:100A3000FFF7D8FC06460AE0286840F480202860CA
:100A4000F0E700BFFFF7CEFC801B642873D828684E
:100A50008003F7D50CE0FFF7C5FC064605E000BFB4
:100A6000FFF7C0FC801B6428F0D828688003F7D407
:100A700020789A4E80074FF001094FF0000839D5D1
:100A8000686810F00C0F07D06868C0F38100022876
:100A900009D16868C00306D42868800714D5206986
:100AA000012808D110E02069B0B1C6F80090FFF726
:100AB00099FC074605E00AE1FFF794FCC01B0228F9
:100AC000C4D828688007F7D52868616920F0F80045
:100AD00040EAC10028600DE0C6F80080FFF782FC04
:100AE000074604E0FFF77EFCC01B022823D82868D5
:100AF0008007F7D4207800072CD57948A169D9B1AF
:100B0000C0F80090FFF76EFC074604E0FFF76AFCB0
:100B1000C01B02280FD8686A8007F7D571484FF4C8
:100B2000FA510068B0FBF1F0009000BF0098411E40
:100B30000091FAD20EE080E0C0F80080FFF752FC8E
:100B4000074604E0FFF74EFCC01B022875D8686A10
:100B50008007F7D42078400760D5E8690027C000F7
:100B600008D4E86940F08050E861E869012700F0A6
:100B7000805000905C480168C90513D40168834621
:100B800041F480710160FFF72DFC824606E000BF52
:100B9000FFF728FCA0EB0A0064284ED8DBF8000021
:100BA000C005F5D5E06801280AD008B1052813D0A2
:100BB000286A20F001002862286A20F0040002E080
:100BC000286A40F001002862E06841F2883B98B151
:100BD000FFF708FC82460BE0286A40F00400286218
:100BE000EEE700BFFFF7FEFBA0EB0A0159455AD81C
:100BF000286A8007F6D50CE0FFF7F4FB824605E093
:100C0000FFF7F0FBA0EB0A0159454CD8286A800792
:100C1000F6D41FB1E86920F08050E861E06988B33C
:100C20006968C1F38101022944D00228C6F86080B6
:100C300004D0FFF7D7FB044638E034E0FFF7D2FBDF
:100C4000074604E0FFF7CEFBC01B02282BD828681C
:100C50008001F7D4206AB0F5803F05D16868A168AB
:100C600020F4003008436860D4E90801084369684B
:100C700021F4741108436860C6F86090FFF7B2FB76
:100C8000044606E025E000BFFFF7ACFB001B02288E
:100C900009D828688001F7D51BE000BFFFF7A2FB49
:100CA000001B022802D90320BDE8F88F28688001C4
:100CB000F4D40EE00128F7D06868226A00F480318D
:100CC000914204D1616A00F47010884201D0012081
:100CD000EAE70020E8E7000000100240000042427E
:100CE000800442420C0000200070004010B5401EFD
:100CF000B0F1807F01D3012010BD4FF0E02460618E
:100D00000F21601700F0B8F90020A06107202061D2
:100D1000002010BDFEE701684A69D24352050FD496
:100D20006FF480624A61002140F8301F2022427334
:100D30008173026942F0040202610173012070476D
:100D400000207047F8B50446C06A1E460D46174697
:100D5000082807D0012805D010F5803F02D0206B6D
:100D6000122804D12068016841F4807101601346A3
:100D700000224FF001112046009600F057F840B1D4
:100D800020680068C00502D54FF40070206403207D
:100D9000F8BD2069B0F5804F0ED00620216800EA2A
:100DA000D51040F0F000086133463A460B49204622
:100DB00000F070F878B902E005F0FE0000E0E8B25B
:100DC00021680861054933463A46891F204600F0EC
:100DD00061F80028DCD00120F8BD00000800010007
:100DE00070B516460D4604460DE02046FFF793FF0A
:100DF00008B1012070BD681C05D0FFF7F3FA801B15
:100E0000A84207D835B120684069C0434007ECD4F8
:100E1000002070BD002044F8300F20216173A073C2
:100E2000216941F0200121612073E2E72DE9F047BB
:100E30001E4690460D460446C1F30747DDF8209054
:100E400008E0701C06D0FFF7CDFAA0EB0900B04215
:100E50000FD876B12068012F18D0806925EA0000EC
:100E60000004000C14D000214145EAD00020BDE868
:100E7000F087002044F8300F20216173A0732169AE
:100E800041F02001216120730120F0E74069E5E78E
:100E90000121E9E72DE9F0479A4691460E460446BE
:100EA00000254FF02008C1F3074725E0206840697E
:100EB000C043400514D42068016841F4007101600A
:100EC00021686FF480604861256384F83D8084F870
:100ED0003E50206C40F00400206484F83C501FE039
:100EE000B9F1FF3F08D0FFF77DFAA0EB0A014945B1
:100EF0000CD8B9F1000F09D02068012F13D08069F8
:100F000026EA00000004000C0BD0CFE744F8305F65
:100F100084F80D80A573206940F0200020612573BE
:100F20000120BDE8F0874069EAE770B516460D4636
:100F300004460DE02046FFF7EEFE08B1012070BD2B
:100F4000681C05D0FFF74EFA801BA84207D835B1C0
:100F500020684069C0430006ECD4002070BD00202A
:100F600044F8300F20216173A073216941F0200102
:100F700021612073E2E7000030B585B000241448F9
:100F80000094019402940394816941F020018161ED
:100F9000816901F020010491816941F008018161BA
:100FA00080690C4D00F008000490002204212846BE
:100FB000FFF712FA042000900120CDE9010402207D
:100FC000039069462846FFF70BF905B030BD0000D5
:100FD00000100240001401400D4810B50B4901609B
:100FE0000C49416000214FF480428160C0E9031246
:100FF00041618161C1610162FFF7FAF9002803D004
:10100000BDE81040FFF7D8B810BD00000054004004
:1010100010000020A0860100FEE7FEE77047704741
:10102000FFF76EBB10B590B028216846FFF7A5F812
:1010300014210AA8FFF7A1F80220009001200490D3
:1010400010200024059007946846FFF7BFFC08B104
:1010500072B6FEE70F20CDE90A040C940D9400212E
:101060000AA80E94FFF7D6FB002801D072B6FEE75F
:1010700010B010BD7047FEE70907090E002804DB19
:1010800000F1E02080F80014704700F00F0000F13C
:10109000E02080F8141D704702E008C8121F08C144
:1010A000002AFAD170477047002001E001C1121FE9
:1010B000002AFBD1704710B5012000F04BF8BDE8C5
:1010C00010400120FFF77AB810B53220FFF776F80C
:1010D000302000F03FF80520FFF770F8302000F0D6
:1010E00039F80120FFF76AF8302000F033F80A20C1
:1010F000FFF764F8202000F02DF80A20FFF75EF8D3
:10110000282000F027F80120FFF758F8082000F009
:1011100021F80120FFF752F8012000F01BF8012010
:10112000FFF74CF80C2000F015F80120FFF746F807
:10113000BDE810400120FFF741B810B1012805D1EA
:1011400002E041F0800101E041F0C001C8B200F0CE
:1011500001B800001CB500F0F00141F00C028DF860
:10116000042041F0080100018DF8051040F00C0149
:101170008DF8061040F008008DF8070064200090FC
:10118000042301AA4E210348FFF7F6F90120FFF7D7
:1011900015F81CBD100000201CB500F0F00141F056
:1011A0000D028DF8042041F0090100018DF80510B1
:1011B00040F00D018DF8061040F009008DF8070091
:1011C00064200090042301AA4E210348FFF7D4F9BC
:1011D0000120FEF7F3FF1CBD1000002010B50446EF
:1011E00002E0641CFFF7D8FF20780028F9D1BDE8A1
:1011F00010400120FEF7E2BF10B51446FFF79DFF37
:101200002046BDE81040FFF7E9BF0000FFF780FA75
:10121000FFF708FFFFF7B0FEFFF7DEFEFFF754FF12
:10122000FFF749FF002105A20846FFF7E5FF07A2E7
:1012300000210120FFF7E0FFFEE7000048656C6C2D
:101240006F20576F726C64210000000066726F6D32
:101250002020616E6A696170756C75000000000085
:101260000000000001020304060708090000000056
:101270000102030494120008000000201000000086
:1012800098100008A4120008100000205804000064
:10129000A81000080100000010000000000000007D
:0412A0000024F40032
:0400000508000131BD
:00000001FF
