:020000040800F2
:10000000800400204901000873100008190D000841
:1000100071100008B50100083B1200080000000044
:10002000000000000000000000000000E3110008D4
:10003000B701000800000000E1110008E511000808
:100040006301000863010008630100086301000800
:1000500063010008630100086301000863010008F0
:1000600063010008630100086301000863010008E0
:1000700063010008630100086301000863010008D0
:1000800063010008630100086301000863010008C0
:1000900063010008630100086301000863010008B0
:1000A00063010008630100086301000863010008A0
:1000B0006301000863010008630100086301000890
:1000C0006301000863010008630100086301000880
:1000D0006301000863010008630100086301000870
:1000E0006301000863010008630100086301000860
:1000F0006301000863010008630100086301000850
:10010000630100086301000863010008630100083F
:10011000630100086301000863010008630100082F
:10012000630100086301000863010008630100081F
:10013000DFF810D000F02CF800480047B11200089A
:10014000AFF300808004002006488047064800473F
:10015000FEE7FEE7FEE7FEE7FEE7FEE7FEE7FEE777
:10016000FEE7FEE73912000831010008D2B201E0D3
:1001700000F8012B491EFBD270470022F6E710B5AC
:1001800013460A4604461946FFF7F0FF204610BD05
:10019000064C074D06E0E06840F0010394E80700D4
:1001A00098471034AC42F6D3FFF7C6FF601C000836
:1001B000801C0008FEE7704772B6FEE770B5044683
:1001C00000F010F90546601C02D004480078044491
:1001D00000F008F9401BA042FAD370BD1C000020BB
:1001E0002DE9F84FDFF8C891002409F1040A0AF15B
:1001F000040B23460F270BF1040ED1E00125A54087
:1002000006EA0502AA4276D1DFF8A8C14E68A6EB3D
:100210000C0866452BD00DDC032E34D005DC36B33C
:10022000012E19D0022E2FD11BE0112E16D0122E26
:100230002AD119E0B8F5881F19D006DCB8F5803F3F
:1002400015D0B8F5801F1FD111E0B8F5001F0ED0F2
:10025000B8F5041F18D10AE0CB6815E0CB681B1D68
:1002600012E0CB6808330FE0CB680C330CE08B68EE
:100270002BB1012B4FF0080303D0456104E00423A8
:1002800002E0056100E00023FF2A01D8064601E0F4
:1002900000F104064FEA840501D9A5F12005D6F83E
:1002A000008007FA05FC28EA0C0803FA05F548EA7D
:1002B0000508C6F800804D68ED0070D53E4DAE696A
:1002C00046F00106AE61AD6924F0030605F00105B4
:1002D00000953A4D06EB050CDCF80850A607360FE2
:1002E00007FA06F825EA0805DFF8D480404503D16F
:1002F0004FF0000825E052E0DFF8C880404502D109
:100300004FF001081DE0DFF8C080404502D14FF0FA
:10031000020816E0DFF8B480404502D14FF0030830
:100320000FE0DFF8AC80404502D14FF0040808E050
:10033000DFF8A080404502D14FF0050801E04FF002
:10034000060808FA06F848EA0508CCF808804D685F
:10035000D9F80060ED034D4601D5164300E0964301
:100360002E604D68DAF80060AD03554601D516439E
:1003700000E096432E604D68DBF80060ED025D46BC
:1003800001D5164300E096432E604D68DEF800600C
:10039000AD02754601D5164300E096432E60641CFD
:1003A0000A681646E2407FF429AFBDE8F88F0000E6
:1003B0000004014000001110001002400000014044
:1003C00000080140000C01400010014000140140F1
:1003D00000180140001C01400AB101617047090486
:1003E000FBE7000001488068704700001C00002007
:1003F00070B5040025D094F83D00002520B984F89C
:100400003C50204600F050F9242084F83D0020683C
:10041000016821F0010101602068016841F4004198
:1004200001602068016821F40041016000F08AFA4F
:100430004D4A6168914201D84C4900E04C498842DC
:1004400001D2012070BD4B492368B0FBF1F15E6819
:1004500026F03F060E435E606368934206D94FF470
:10046000967359434FF47A73B1FBF3F12368491C37
:100470001E6A26F03F06314319626168914210D826
:100480004900401EB0FBF1F2521CC2F30B02042AD9
:1004900001D2042022E0B0FBF1F0401CC0F30B00BD
:1004A0001CE0A268F2B301EBC10303EB0116431E8B
:1004B000B3FBF6F35B1C43F480431B0549D092B3B6
:1004C00001EBC10202EB0111401EB0FBF1F0401C38
:1004D000C0F30B0040F4804040F400402168CA693A
:1004E0004CF6FF739A431043C861D4E907100143E7
:1004F0002068026822F0C00211430160D4E90301C0
:1005000001432068826848F2FF339A4311438160B7
:10051000D4E9050108432168CA6822F0FF021043AC
:10052000C86001E00EE016E02068016841F00101BA
:1005300001602564202084F83D00256384F83E5046
:10054000002070BD01EB4106431EB3FBF6F35B1CBC
:10055000B3E70120C2E701EB4101401EB0FBF1F01F
:10056000401CC0F30B00B7E7A086010080841E008A
:1005700000093D0040420F002DE9FF4F83B09A462D
:10058000DDE9119793460446DDF84080FFF72AFF26
:10059000054694F83D0020287FD1192301224049C7
:1005A0002046009500F04AFC002876D194F83C00E3
:1005B000012872D0012084F83C0020680168C90736
:1005C00003D1016841F0010101602068016821F454
:1005D00000610160212084F83D00402084F83E0045
:1005E00000262664C4F82480A4F82A90608D208513
:1005F0002C48E062CDE9007553465A4620460499DE
:1006000000F0A2FB70B930E02A463946204600F0DF
:1006100094FC58B1206C042804D12068016841F48E
:1006200000710160012007B0BDE8F08F606A2168A9
:1006300000780861606A401C6062218D491E89B2A1
:100640002185628D521E628522685369DB435B07F8
:100650000BD469B100781061606A401C6062208D23
:10066000401E2085608D401E6085208D0028CBD1E6
:100670002A463946204600F0BBFB0028CAD154F870
:100680003D0B016841F400710160202004F81E094F
:10069000E67766770020C6E7FFE70220C3E70000A1
:1006A000020010000000FFFF10B586B0002100918D
:1006B00001910291039100680F4988421AD10F4CB1
:1006C000A06940F00800A061A069694600F0080038
:1006D0000490C0200090122001900320039008484D
:1006E000FFF77EFDE06940F40010E061E06900F48E
:1006F0000010049006B010BD0054004000100240ED
:10070000000C014002488168027811448160704702
:100710001C000020074810B5016841F0100101607D
:10072000032000F067F8002000F006F800F024F83D
:10073000002010BD0020024070B50D4D04464FF45E
:100740007A712878B1FBF0F00A490968B1FBF0F042
:1007500000F0CEFA48B9102C07D200222146501ED4
:1007600000F028F800206C6070BD012070BD000012
:100770001C000020280000200C4808B5816941F0C9
:1007800001018161816901F001010091C16941F0BC
:100790008051C161C06900F08050009004484168F8
:1007A00021F0E06141F00071416008BD001002409D
:1007B00000000140F0B40E4B1B680C46C3F302234B
:1007C000C3F10705042D00D90425191D072901D2FD
:1007D000002300E0DB1E012606FA05F1491E214038
:1007E00099409E40761E16403143F0BC00F040BD5B
:1007F0000CED00E0064900F0070208684FF6FF0321
:10080000184040EA0220034A104308607047000085
:100810000CED00E00000FA052DE9F0470F46050059
:1008200061D0434E306800F00700B84209D230680A
:1008300020F0070038433060306800F00700B8420D
:1008400051D128683B4C810712D5400703D5606819
:1008500040F4E06060602878000703D5606840F4E9
:10086000605060606068A96820F0F0000843606034
:100870002878C00728D06868012810D0216802288D
:1008800010D0890700292EDA616821F003010143A5
:100890006160FFF7A7FD804641F288390DE02168CD
:1008A0008903EFE78901EDE7FFF79CFDA0EB080165
:1008B000494502D90320BDE8F0876068696800F007
:1008C0000C00B0EB810FEFD1306800F00700B842A8
:1008D0000BD9306820F0070038433060306800F0F2
:1008E0000700B84201D00120E5E72878400705D588
:1008F0006068E96820F4E0600843606028780007D9
:1009000006D56068296920F4605040EAC100606043
:1009100000F028F86168084AC1F30311515CC8402F
:100920000649086006480068FFF706FF0020C2E796
:100930000020024000100240481C0008280000204F
:10094000200000200448054900684968044AC1F3B2
:100950000221515CC840704728000020001002406E
:10096000581C000812A185B00FC98DE80F0014A013
:10097000144A006804905168134801F00C03042BDA
:1009800010D0082B0ED1C1F38343C9031DF8030017
:100990000AD5516804AAC1F34041515C0A4A504348
:1009A000B0FBF1F005B0704708494843FAE7000092
:1009B00002030405060708090A0B0C0D0E0F1010A0
:1009C000010200000010024000127A0000093D0000
:1009D0002DE9F84F040070D02078C04DC00749D0F1
:1009E0006868C0F38100012807D06868C0F38100FF
:1009F000022809D16868C00306D52868800339D564
:100A000060680028E7D035E06068B0F5803F0BD023
:100A100010B1B0F5A02F11D0286820F480302860E4
:100A2000286820F4802002E0286840F480302860A4
:100A3000606890B1FFF7D6FC06460AE0286840F4EB
:100A400080202860F0E700BFFFF7CCFC801B642803
:100A500073D828688003F7D50CE0FFF7C3FC06467F
:100A600005E000BFFFF7BEFC801B6428F0D82868B3
:100A70008003F7D420789A4E80074FF001094FF099
:100A8000000839D5686810F00C0F07D06868C0F30B
:100A90008100022809D16868C00306D4286880074D
:100AA00014D52069012808D110E02069B0B1C6F83A
:100AB0000090FFF797FC074605E00AE1FFF792FC7C
:100AC000C01B0228C4D828688007F7D52868616948
:100AD00020F0F80040EAC10028600DE0C6F8008070
:100AE000FFF780FC074604E0FFF77CFCC01B0228F0
:100AF00023D828688007F7D4207800072CD57948B8
:100B0000A169D9B1C0F80090FFF76CFC074604E07A
:100B1000FFF768FCC01B02280FD8686A8007F7D56A
:100B200071484FF4FA510068B0FBF1F0009000BF3B
:100B30000098411E0091FAD20EE080E0C0F80080DB
:100B4000FFF750FC074604E0FFF74CFCC01B0228EF
:100B500075D8686A8007F7D42078400760D5E869BF
:100B60000027C00008D4E86940F08050E861E869D7
:100B7000012700F0805000905C480168C90513D43B
:100B80000168834641F480710160FFF72BFC8246C7
:100B900006E000BFFFF726FCA0EB0A0064284ED851
:100BA000DBF80000C005F5D5E06801280AD008B1DF
:100BB000052813D0286A20F001002862286A20F056
:100BC000040002E0286A40F001002862E06841F277
:100BD000883B98B1FFF706FC82460BE0286A40F09C
:100BE00004002862EEE700BFFFF7FCFBA0EB0A0160
:100BF00059455AD8286A8007F6D50CE0FFF7F2FB72
:100C0000824605E0FFF7EEFBA0EB0A0159454CD800
:100C1000286A8007F6D41FB1E86920F08050E861A7
:100C2000E06988B36968C1F38101022944D00228D0
:100C3000C6F8608004D0FFF7D5FB044638E034E006
:100C4000FFF7D0FB074604E0FFF7CCFBC01B0228F0
:100C50002BD828688001F7D4206AB0F5803F05D1F1
:100C60006868A16820F4003008436860D4E908018E
:100C70000843696821F4741108436860C6F86090FD
:100C8000FFF7B0FB044606E025E000BFFFF7AAFB34
:100C9000001B022809D828688001F7D51BE000BF97
:100CA000FFF7A0FB001B022802D90320BDE8F88F44
:100CB00028688001F4D40EE00128F7D06868226A21
:100CC00000F48031914204D1616A00F470108842CE
:100CD00001D00120EAE70020E8E700000010024010
:100CE0000000424280044242280000200070004080
:100CF00010B5401EB0F1807F01D3012010BD4FF030
:100D0000E02460610F21601700F0B2FA0020A061BA
:100D100007202061002010BDFEE701684A69D24328
:100D200052050FD46FF480624A61002140F8301FF1
:100D3000202242738173026942F00402026101734E
:100D400001207047002070472DE9F84304460068F1
:100D50000D46DDE9089701689846164641F4807112
:100D600001604B4600224FF001112046009700F031
:100D700065F848B120680068C00502D54FF40070DE
:100D800020640320BDE8F883216805F0FE000861B7
:100D90003B464A461549204600F084F888B9206849
:100DA0004169806900903A464946204600F0C5F8FE
:100DB00048B1206C042804D12068016841F4007116
:100DC00001600120DEE7F5B2B8F1010F09D021681A
:100DD000300A08613A464946204600F0AEF800283D
:100DE000E7D1206805610020CCE700000200010087
:100DF00070B516460D4604460DE02046FFF78DFF00
:100E000008B1012070BD681C05D0FFF7EBFA801B0C
:100E1000A84207D835B120684069C0434007ECD4E8
:100E2000002070BD002044F8300F20216173A073B2
:100E3000216941F0200121612073E2E72DE9F047AB
:100E40001E4690460D460446C1F30747DDF8209044
:100E500008E0701C06D0FFF7C5FAA0EB0900B0420D
:100E60000FD876B12068012F18D0806925EA0000DC
:100E70000004000C14D000214145EAD00020BDE858
:100E8000F087002044F8300F20216173A07321699E
:100E900041F02001216120730120F0E74069E5E77E
:100EA0000121E9E72DE9F0479A4691460E460446AE
:100EB00000254FF02008C1F3074725E0206840696E
:100EC000C043400514D42068016841F400710160FA
:100ED00021686FF480604861256384F83D8084F860
:100EE0003E50206C40F00400206484F83C501FE029
:100EF000B9F1FF3F08D0FFF775FAA0EB0A014945A9
:100F00000CD8B9F1000F09D02068012F13D08069E7
:100F100026EA00000004000C0BD0CFE744F8305F55
:100F200084F80D80A573206940F0200020612573AE
:100F30000120BDE8F0874069EAE770B516460D4626
:100F400004460DE02046FFF7E8FE08B1012070BD21
:100F5000681C05D0FFF746FA801BA84207D835B1B8
:100F600020684069C0430006ECD4002070BD00201A
:100F700044F8300F20216173A073216941F02001F2
:100F800021612073E2E700002DE9F04186B00024E2
:100F900024480094019402940394816941F004016F
:100FA0008161816901F004010491816941F01001BE
:100FB0008161816901F010010491816941F0200192
:100FC0008161816901F020010491816941F008018A
:100FD00081618069144F00F008004FF400650490AF
:100FE000002229463846FFF7F7F9DFF84080002253
:100FF00004214046FFF7F0F90095022601250396EB
:10100000CDE9015469463846FFF7EAF80420CDE9F6
:101010000005CDE9024669464046FFF7E1F806B013
:10102000BDE8F081001002400010014000140140B2
:101030000D4810B50B4901600C49416000214FF487
:1010400080428160C0E9031241618161C161016236
:10105000FFF7CEF9002803D0BDE81040FFF7ACB889
:1010600010BD0000005400402C000020A0860100AC
:10107000FEE7FEE770B5002404F1B000C0B200F056
:101080008BF8002000F088F8102000F085F800258B
:10109000002000F093F86D1CEDB2802DF8D3641C95
:1010A000E4B2082CE8D370BD10B5C820FFF786F86D
:1010B000BDE8104000F0C2B810B50446B031C8B267
:1010C00000F06AF8102040EA141000F065F804F00F
:1010D0000F00BDE8104000F05FB800002DE9F041BE
:1010E000203A00240D468046D6B27F2803D900203E
:1010F0008D1C8046EDB2102B29460FD0FFF7DCFF88
:10110000164906EB460001EB4005285D00F056F855
:10111000641CE4B2062CF8D3BDE8F081FFF7CCFFE5
:101120000F4F00BF04EB0610385C00F047F8641C5A
:10113000E4B2082CF6D36D1CE9B24046FFF7BCFFC1
:101140005FF0000404EB06103844007A00F036F833
:10115000641CE4B2082CF5D3DEE70000001300089D
:10116000281500082DE9F04117460E4604460025D3
:101170000DE0042331462046FFF7B0FF0834E4B207
:10118000782C02D90024B61CF6B26D1CEDB27A5D43
:10119000002AEED1BDE8F08101B584B001214FF401
:1011A000807204A88DE807000B46002278210248CF
:1011B000FFF7E2F905B000BD2C00002001B584B0B6
:1011C00001214FF4807204A88DE807000B464022ED
:1011D00078210248FFF7D0F905B000BD2C000020AF
:1011E00070477047FFF78EBA10B590B02821684657
:1011F000FEF7C3FF14210AA8FEF7BFFF02200090EC
:101200000120049010200024059007946846FFF701
:10121000DFFB08B172B6FEE70F20CDE90A040C949B
:101220000D9400210AA80E94FFF7F6FA002801D0C9
:1012300072B6FEE710B010BD7047FEE7FEB50024A1
:10124000094F4FF4807501263819CDE900060123B6
:101250000022782102950548FFF78EF9641CE4B25C
:101260001B2CF1D3FEBD0000000000202C0000204C
:101270000907090E002804DB00F1E02080F80014C3
:10128000704700F00F0000F1E02080F8141D704757
:1012900002E008C8121F08C1002AFAD1704770473F
:1012A000002001E001C1121F002AFBD1704700009D
:1012B000FFF730FAFFF798FFFFF766FEFFF7B8FE7B
:1012C000FFF7F2FEFFF7D6FE05A202210020FFF78E
:1012D00049FF07A204210020FFF744FFFEE70000BA
:1012E00048656C6C6F204E657720576F726C640098
:1012F00046726F6D20416E6A696170756C75000091
:101300000000000000000000002F000000000700A7
:10131000070000147F147F1400242A7F2A12006221
:1013200064081323003649552250000005030000CD
:1013300000001C224100000041221C000014083E55
:1013400008140008083E0808000000A0600000081B
:10135000080808080000606000000020100804026F
:10136000003E5149453E0000427F4000004261512D
:101370004946002141454B31001814127F100027C7
:1013800045454539003C4A4949300001710905038A
:1013900000364949493600064949291E00003636BB
:1013A000000000005636000000081422410000141E
:1013B00014141414000041221408000201510906FB
:1013C00000324959513E007C1211127C007F49497C
:1013D0004936003E41414122007F4141221C007FAD
:1013E00049494941007F09090901003E4149497ABB
:1013F000007F0808087F0000417F41000020404135
:101400003F01007F08142241007F40404040007FA0
:10141000020C027F007F0408107F003E4141413EE4
:10142000007F09090906003E4151215E007F09192C
:1014300029460046494949310001017F0101003F29
:101440004040403F001F2040201F003F4038403FA9
:10145000006314081463000708700807006151490D
:10146000454300007F41410000552A552A550000A0
:1014700041417F000004020102040040404040401E
:10148000000001020400002054545478007F4844B6
:10149000443800384444442000384444487F0038ED
:1014A0005454541800087E0901020018A4A4A47C16
:1014B000007F080404780000447D400000408084E0
:1014C0007D00007F102844000000417F4000007C28
:1014D00004180478007C0804047800384444443834
:1014E00000FC242424180018242418FC007C080480
:1014F000040800485454542000043F444020003C59
:101500004040207C001C2040201C003C4030403CDF
:10151000004428102844001CA0A0A07C004464546F
:101520004C441414141414140000000000000000B3
:101530000000000000000000000000F800000000B3
:10154000000000333000000000100C06100C0600F4
:10155000000000000000000040C07840C07840005B
:10156000043F04043F040400007088FC08300000BD
:10157000001820FF211E0000F008F000E018000015
:1015800000211C031E211E0000F0088870000000CE
:101590001E2123241927211010160E000000000020
:1015A0000000000000000000000000E0180402003D
:1015B000000000071820400000020418E0000000AE
:1015C0000040201807000000404080F080404000AC
:1015D0000202010F01020200000000F00000000002
:1015E0000101011F010101000000000000000000D6
:1015F00080B070000000000000000000000000004B
:1016000000010101010101010000000000000000D3
:10161000003030000000000000000000806018046E
:10162000006018060100000000E010080810E0004B
:10163000000F102020100F00001010F80000000014
:101640000020203F2020000000700808088870005B
:1016500000302824222130000030088888483000DB
:101660000018202020110E000000C02010F80000FB
:1016700000070424243F240000F808888808080094
:101680000019212020110E0000E0108888180000A9
:10169000000F112020110E0000380808C83808007B
:1016A0000000003F000000000070880808887000FB
:1016B000001C222121221C0000E010080810E0007C
:1016C0000000312222110F00000000C0C000000005
:1016D000000000303000000000000080000000002A
:1016E0000000806000000000000080402010080022
:1016F00000010204081020004040404040404000EB
:1017000004040404040404000008102040800000C5
:101710000020100804020100007048080808F000CA
:101720000000003036010000C030C828E810E0009A
:101730000718272423140B000000C038E000000025
:10174000203C23020227382008F88888887000008F
:10175000203F202020110E00C03008080808380063
:10176000071820202010080008F808080810E000DA
:10177000203F202020100F0008F88888E80810007B
:10178000203F20202320180008F88888E80810004F
:10179000203F200003000000C03008080838000087
:1017A00007182020221E020008F808000008F80888
:1017B000203F210101213F20000808F8080800000F
:1017C0000020203F2020000000000808F808080042
:1017D000C08080807F00000008F888C028180800BA
:1017E000203F20012638200008F8080000000000F3
:1017F000203F20202020300008F8F800F8F80800EA
:10180000203F003F003F200008F830C00008F808E3
:10181000203F200007183F00E01008080810E000F3
:101820000F10202020100F0008F808080808F0000A
:10183000203F210101010000E01008080810E0002D
:101840000F18242438504F0008F8888888887000C2
:10185000203F2000030C3020007088080808380062
:101860000038202121221C00180808F80808180058
:101870000000203F2000000008F808000008F808D9
:10188000001F202020201F000878880000C838088A
:10189000000007380E010000F80800F80008F80002
:1018A000033C0700073C030008186880806818089C
:1018B00020302C03032C30200838C800C83808001A
:1018C0000000203F2000000010080808C838080069
:1018D0002038262120201800000000FE020202000D
:1018E0000000007F40404000000C30C000000000BD
:1018F000000000010638C00000020202FE000000E5
:10190000004040407F00000000000402020204008A
:1019100000000000000000000000000000000000C7
:1019200080808080808080800002020400000000AF
:1019300000000000000000000000808080800000A7
:101940000019242222223F2008F800808000000095
:10195000003F112020110E00000000808080000058
:10196000000E112020201100000000808088F80067
:10197000000E112020103F20000080808080000099
:10198000001F222222221300008080F088888818FD
:101990000020203F20200000000080808080800008
:1019A000006B94949493600008F80080808000009D
:1019B000203F210000203F20008098980000000078
:1019C0000020203F202000000000008098980000A8
:1019D00000C08080807F000008F8000080808000C8
:1019E000203F24022D302000000808F800000000ED
:1019F0000020203F202000008080808080808000A8
:101A0000203F20003F20003F808000808080000039
:101A1000203F210000203F200000808080800000C7
:101A2000001F202020201F008080008080000000F8
:101A300080FFA12020110E00000000808080800027
:101A4000000E112020A0FF80808080008080800018
:101A500020203F2120000100000080808080800045
:101A60000033242424241900008080E080800000BA
:101A70000000001F20200000808000000080800007
:101A8000001F202020103F20808080000080808068
:101A900000010E30080601008080008000808080F8
:101AA0000F300C030C300F0000808000808080001D
:101AB0000020312E0E312000808080000080808048
:101AC00080818E70180601000080808080808000F8
:101AD0000021302C2221300000000000807C020216
:101AE00000000000003F40400002027C8000000037
:101AF0000040403F0000000000000000FF00000028
:101B000000000000FF000000404042CC00000084C4
:101B100084848484FC0000000000000000000000B9
:101B200000000000000000000000007F2010003FC7
:101B300040404040414070000000000000000000B4
:101B4000000000000000000000FE02FA02FE00009B
:101B50000000FF1010101000000000000000000046
:101B600000000000000000008047300F106700FFF9
:101B70004141414141FF0000000000000000000021
:101B80000000000000000000002018C74444444446
:101B9000FC44444444040000000000000000000035
:101BA0000000000000000000040404070404040412
:101BB000FF0404040404040000000000000000000E
:101BC0000000000000000000000000FE222222228F
:101BD00022222222FE00000000000000000000007F
:101BE00000000000000000008040300F02020202EE
:101BF000020242827F00000000000000000000009E
:101C00000000000000000000000000FE82828282CE
:101C1000828282FE00000000000000000000000040
:101C20000000000000000000000000FF40404040B5
:101C3000404040FF000000000000000000000000E5
:101C40000000000000000000000000000000000094
:101C50000102030406070809000000000102030452
:101C6000801C0008000000202C00000090120008DA
:101C7000AC1C00082C00002054040000A012000836
:101C8000AE001040B081FFA1A6A83FC8D300D58008
:101C9000D805D9F1DA12D8308D14AF000100000058
:0C1CA00010000000000000000024F40010
:0400000508000131BD
:00000001FF
